:0300000002009D5E
:10001B0002181BC00078B10000D8FCD00022C00031
:10002B00C001792D78A6D8FED9FADAF6D001D00026
:10003B0022D29612001EC29622D29402004EC29475
:10004B0002004EA2E792B5A2E692B4A2E592B3A249
:10005B00E492B212003CA2E392B5A2E292B4A2E106
:10006B0092B3A2E092B212003C22C296C2957433B4
:10007B001200497433120049743212004974281269
:10008B000049740C12004974011200497A021200E3
:10009B00292275817F75C100120075748012004989
:1000AB00744112004474C21200497442120044801D
:0100BB00FE46
:00000001FF
