:0300000002009D5E
:10001B0002181BC00078B10000D8FCD00022C00031
:10002B00C001792D78A6D8FED9FADAF6D001D00026
:10003B0022D29612001EC29622D29402004EC29475
:10004B0002004EA2E792B5A2E692B4A2E592B3A249
:10005B00E492B212003CA2E392B5A2E292B4A2E106
:10006B0092B3A2E092B212003C22C296C2957433B4
:10007B001200497433120049743212004974281269
:10008B000049740C12004974011200497A021200E3
:10009B00292275817F75C1001200751201157480BC
:1000AB001200499001931201A774C01200499001EC
:1000BB009E1201A72090FD3090FD1200E17D807E05
:1000CB000A1200F00DDEFA7DC07E081200F00DDE84
:1000DB00FA0200A980FE7A5979FA78A6D8FED9FAE5
:1000EB00DAF6B2B722ED1200497400120044120086
:1000FB00E1ED12004974011200441200E1ED12000F
:10010B004974021200441200E12274401200497437
:10011B000E120044741F120044741E120044741C0F
:10012B00120044741E120044741F120044740E1209
:10013B0000447400120044740E120044741F120029
:10014B0044741F120044741F120044741F120044A5
:10015B00741F120044740E12004474001200447495
:10016B000012004474001200447400120044740026
:10017B001200447400120044740012004474001204
:10018B000044740012004422464F4E444120434821
:10019B00415500313539353431343300E493600641
:0701AB00120044A380F622BC
:00000001FF
